:020000040800F2
:100000003007002089010008410F00084906000858
:10001000E30D0008430200088119000800000000F9
:100020000000000000000000000000006D14000847
:10003000710400080000000029140008F1150008F0
:10004000A3010008A3010008A3010008A301000800
:10005000A3010008A3010008A3010008A3010008F0
:10006000A3010008A3010008A3010008A3010008E0
:10007000A3010008A3010008A3010008A3010008D0
:10008000A3010008A3010008A3010008A3010008C0
:10009000A3010008A3010008A3010008A3010008B0
:1000A000A3010008A3010008A3010008A3010008A0
:1000B0005D160008A3010008A3010008A3010008C1
:1000C000A3010008A3010008A3010008A301000880
:1000D000A3010008A3010008A3010008A301000870
:1000E000A3010008A3010008A301000800F002F822
:1000F00000F03AF80AA090E8000C82448344AAF188
:100100000107DA4501D100F02FF8AFF2090EBAE885
:100110000F0013F0010F18BFFB1A43F0010318473B
:100120008C2A0000AC2A0000103A24BF78C878C19D
:10013000FAD8520724BF30C830C144BF04680C60ED
:10014000704700000023002400250026103A28BF35
:1001500078C1FBD8520728BF30C148BF0B60704739
:100160001FB51FBD10B510BD00F031F81146FFF7E7
:10017000F7FF01F05FFC00F04FF803B4FFF7F2FF68
:1001800003BC00F057F800000948804709480047C1
:10019000FEE7FEE7FEE7FEE7FEE7FEE7FEE7FEE737
:1001A000FEE7FEE704480549054A064B7047000094
:1001B000FD150008ED000008300100203007002088
:1001C00030030020300300207047704770477546A9
:1001D00000F02CF8AE4605006946534620F00700B3
:1001E000854618B020B5FFF7DDFFBDE820404FF091
:1001F00000064FF000074FF000084FF0000B21F011
:100200000701AC46ACE8C009ACE8C009ACE8C009DD
:10021000ACE8C0098D46704710B50446AFF30080C6
:100220002046BDE81040FFF7A8BF00000048704717
:10023000D000002001491820ABBEFEE726000200D6
:10024000704700BFFEE7000070B500F02DFC0546CA
:100250000D480168284602F03BF904460B49204648
:1002600002F004F904D20A49204602F031F90446AA
:100270000849204601F0FAFF04D20549204601F062
:1002800071FE0446204670BD30000020000034435B
:100290000000B443000034C310B5FFF7D5FF024996
:1002A000086001F03BF810BD2C00002010B500F0F4
:1002B000FBFB0449086000200349086001F02EF8A8
:1002C00010BD0000300000202C00002010B53E487A
:1002D000007820B1012819D0022873D16AE001F01A
:1002E0004DFD00F07FF804467CB1384804700020D2
:1002F00037490870902037490870344890F9000059
:1003000000F04AFB0120304908705BE0072001F053
:10031000FFFB00F06FF904462E480078002804DD4A
:100320002C480078401E2B49087014F1020F24DD80
:10033000022C22DA26480078401C2549087008461D
:100340000078052802DA2348007860BB224800784C
:10035000401C2149087008460078042807DB00216A
:10036000084601F0F9F802201749087021E000F072
:10037000F3FA0020144908701BE0002014490870AB
:100380001448007878B914480078401C1249087065
:1003900008460078042807DB0021084601F0DCF855
:1003A00002200949087004E000F0D6FA002006494E
:1003B000087007E00021084601F0CEF80020074948
:1003C000088000BF00BF10BD800000208200002018
:1003D0008300002084000020810000207C00002099
:1003E0007047000010B5012001F0CCFAC0B1022026
:1003F00001F0C8FAA0B1032001F0C4FA80B11A4894
:100400000078401C184908700020184908701648E8
:100410000078022826DB002013490870012010BD57
:10042000072001F0AFFAC0B1082001F0ABFAA0B18B
:10043000062001F0A7FA80B10C480078401C0B4957
:10044000087000200849087008480078022809DB75
:10045000002006490870401EE1E7002002490870AC
:10046000024908700020DAE785000020860000209D
:10047000704700B5034603E04FF47A7000F005F8CA
:10048000181EA3F10103F7D100BD00EBC001C900A4
:100490004FF0E0225161002191610521116100BFFF
:1004A0004FF0E021096901F480310029F8D00421DE
:1004B0004FF0E022116170472DE9F041024600251E
:1004C0000026002000230024002791F803C00CF030
:1004D0000F0591F803C00CF0100CBCF1000F03D015
:1004E00091F802C04CEA050591F800C0BCF1000F7C
:1004F00031D0146800202BE04FF0010C0CFA00F30F
:10050000B1F800C00CEA03069E4220D183004FF0F0
:100510000F0C0CFA03F7BC4305FA03FC4CEA040485
:1005200091F803C0BCF1280F06D14FF0010C0CFA72
:1005300000FCC2F814C00AE091F803C0BCF1480FF7
:1005400005D14FF0010C0CFA00FCC2F810C0401CA1
:100550000828D1D31460B1F800C0BCF1FF0F34DD1E
:10056000546800202EE000F1080C4FF0010808FA52
:100570000CF3B1F800C00CEA03069E4221D18300BF
:100580004FF00F0C0CFA03F7BC4305FA03FC4CEADE
:10059000040491F803C0BCF1280F05D100F1080C48
:1005A00008FA0CF8C2F8148091F803C0BCF1480FA7
:1005B00007D100F1080C4FF0010808FA0CF8C2F856
:1005C0001080401C0828CED35460BDE8F08102465C
:1005D000002093680B400BB1012000E00020704721
:1005E00041617047016170470AB1016100E04161FA
:1005F0007047000010B50348006801F0E3FD40B209
:1006000010BD00004800002008B501210C2000F0BA
:100610001DFF4FF46040ADF8000010208DF803007E
:1006200003208DF8020069460548FFF745FF4FF4A7
:100630008070ADF8000069460248FFF73DFF08BD35
:10064000000C01400008014000BFFEE710B500F0BB
:10065000BBF900F029FA07490860074A002107485A
:1006600000F066FE4FF07C5200214FF07E5000F00B
:100670006FFE10BD30000020000040416666A63FBE
:100680002DE9F04104460D46D4E9010101F06AFC70
:100690006060E168606801F065FC064631466068AC
:1006A00001F0CEFC20612846216801F011FF0746C9
:1006B000216901F00FFE0646216801F053FC20601D
:1006C0004FF07E50216901F003FF0646616801F09A
:1006D00001FE60602068BDE8F081000070B505464D
:1006E0002C460021204601F0C1FD01D284F00044D7
:1006F0000B49204601F0BAFD03D20A480A490860B6
:100700000CE00A49204601F0B1FD03D20848064931
:10071000086003E04FF07C500349086070BD0000A2
:100720000000A0400AD7A33C180000200000F041C0
:10073000CDCCCC3D2DE9F04104462148007840B1B4
:100740002048046000201E4908701E480068BDE86B
:10075000F0811D4801681D48006801F003FC1B4939
:1007600008601B4801681948006801F0FBFB064659
:1007700031461648006801F063FC054611480168DF
:10078000204601F0A5FE0746294601F0A3FD0646D6
:100790000C480168304601F0E5FB0A49086029462B
:1007A0004FF07E5001F094FE06460848016830463E
:1007B00001F090FD0549086002480068C7E70000A5
:1007C000200000201000002018000020140000204D
:1007D0001C00002070B50025002401212448FFF7EB
:1007E000F6FE08B9032417E002212148FFF7EFFEC7
:1007F00008B9042410E04FF400611E48FFF7E7FE3B
:1008000008B9012408E04FF480511A48FFF7DFFED1
:1008100008B9022400E000241748007820B101281C
:100820000AD0022821D11BE02CB101201249087006
:1008300014201249088018E010480088002805DDBF
:100840000E480088401E0D49088008E024B1254666
:1008500002200949087002E000200749087004E0FE
:1008600014B900200449087000BF00BF284670BDBD
:10087000000C0140000801400000002002000020A0
:1008800008B501210C2000F0E1FD48208DF803009F
:100890000320ADF800008DF8020069460848FFF714
:1008A0000BFE48208DF803004FF4C050ADF8000057
:1008B00003208DF8020069460248FFF7FDFD08BDE0
:1008C000000C01400008014010B5FFF783FF1549F7
:1008D00008700846007800B910BDFFF7E7FCFFF785
:1008E000B5FEFFF77DFDFFF7D7FC4FF480500E49B2
:1008F000088000200D4908700D4908700D490870E6
:100900000D4908700D49087000F05EFB0CA2012132
:10091000084600F0CFFC0EA20121022000F0CAFC24
:1009200000BFD9E77E0000207C000020810000206D
:10093000820000208300002084000020800000202E
:100940005461736B3A312053717561726500000018
:100950005961773A000000000020094908604FF013
:100960007E5048600020086106490860064908601A
:10097000064908600649087006490880704700006B
:1009800050000020400000204400002048000020CB
:100990004C0000204E000020002803DD0521084AFD
:1009A000117008E0002803DAFB21054A117002E00B
:1009B0000021034A11701921024A1180704700007A
:1009C0004C0000204E00002030B589B000240025E6
:1009D00010E006A807A908AB03AACDE9001004A9F6
:1009E00005A800F01BF8BDF9180004440220FFF729
:1009F00040FD6D1C642DECDB642094FBF0F000B234
:100A0000044908804FF07C51034800F08BF809B08E
:100A100030BD0000040000200AD7A33C2DE9FF47A9
:100A200004460D4617461E46DDE90C890E2269462E
:100A30003B2000F0B0F89DF801009DF8001040EA5E
:100A4000012000B220809DF803009DF8021040EACA
:100A5000012000B228809DF805009DF8041040EAAE
:100A6000012000B238809DF809009DF8081040EA86
:100A7000012000B230809DF80B009DF80A1040EA7A
:100A8000012000B2A8F800009DF80D009DF80C10A0
:100A900040EA012000B2A9F80000BDE8FF8710B5C8
:100AA000752000F059F810BD01480068704700003B
:100AB0000800002010B5002400F096F91420FFF77C
:100AC000D8FC0CE00120FFF7D4FC601C80B2044687
:100AD000FF2804DD002012490870012010BDFFF737
:100AE000DEFF6828EED101216B2000F063F90021C0
:100AF0006C2000F05FF90921192000F05BF9062154
:100B00001A2000F057F908211B2000F053F9182192
:100B10001C2000F04FF90120014908700020DDE79A
:100B20000C000020074A1060074A11600022074BA2
:100B30001A604FF07E52064B1A600122054B1A7064
:100B400070470000180000201C000020100000204A
:100B5000140000202000002070B5044600F0BBF90E
:100B6000D02000F09FF900F069F9204600F09AF9D2
:100B700000F064F900F0AFF9D12000F093F900F033
:100B80005DF900F06AF90546012000F07FF900F0F8
:100B9000B0F9284670BD2DE9F04107460E461546CE
:100BA00000F099F9D02000F07DF900F047F93846BF
:100BB00000F078F900F042F900F08DF9D12000F052
:100BC00071F900F03BF900240DE000F046F93055D2
:100BD000691EA14201DC012100E00021084600F06D
:100BE00055F9601CC4B2AC42EFDB00F082F9BDE8FD
:100BF000F08100002DE9F04104466049B1F9001090
:100C0000601A01F01BFB80465D4901F019FA0546A8
:100C10002846FFF763FD2846FFF78CFD07462E4662
:100C20000021304601F022FB01D286F000465549F2
:100C3000304601F01BFC03D819205349087008E026
:100C400051480078002804DD4F480078401E4E4986
:100C500008704D480078002853D14C49384601F0BF
:100C600005FC42D24A49384601F000FB3DD24948D2
:100C70000078052804DA47480078401C4549087088
:100C800044480078052851DB012043490870434956
:100C9000384601F01FFB804641480168404601F09C
:100CA00061F93F4908604FF07A513D48006801F012
:100CB000DDFB09D231480088401C00B22F49088072
:100CC0000020374908600EE036493548006801F0D9
:100CD000CDFA08D229480088401E00B22749088072
:100CE00000202F490860BDE8F081002029490870E4
:100CF00029480078D0B100202749087028490860A9
:100D000014E02249384601F0B1FB04D220493846AC
:100D100001F0ACFA02D300201E4908701E4800788A
:100D200020B100201C4908701D4908601E49384642
:100D300001F0D0FA80461D480168404601F012F9E2
:100D40001A4908601A491948006801F08FFB06D853
:100D500017491648006801F0BBFB144908600021E0
:100D60001248006801F082FA06D211490F48006863
:100D700001F0F8F80D49086000BFB4E70400002056
:100D8000000083420000F041290000209A9919BF19
:100D90009A99193F2100002028000020CDCCCC3D9D
:100DA00024000020000080BE0AD7A33C08000020D9
:100DB0000000B44370B505460C4600F08CF8D02016
:100DC00000F070F800F03AF8284600F06BF800F0F8
:100DD00035F8204600F066F800F030F800F089F8A9
:100DE00070BD00BFFEE7000008B50121082000F03B
:100DF0002DFB14208DF803004FF44060ADF8000087
:100E000003208DF8020069460448FFF755FB4FF4B4
:100E100040610248FFF7E6FB08BD0000000C0140FE
:100E200010B54FF400610448FFF7D1FB04460220DF
:100E3000FFF72BFB204610BD000C014010B5012030
:100E400000F070F8012000F05FF8FFF7E9FF0446BA
:100E5000002000F059F8204610BD70B50025012093
:100E600000F060F800240DE0012000F04DF8FFF7DD
:100E7000D7FF10B1802020410543002000F044F846
:100E8000601CC4B2082CEFDB284670BD10B50446C8
:100E9000204600F047F8012000F036F8002000F06E
:100EA00033F810BD70B50546002411E080212141C2
:100EB000294009B1012100E00021084600F032F884
:100EC000012000F021F8002000F01EF8601CC4B2E0
:100ED000082CEBDB70BD10B5012000F023F80120D9
:100EE00000F012F8002000F01DF8002000F00CF8CF
:100EF00010BD10B5002000F015F8012000F004F836
:100F0000012000F00FF810BD10B5044622464FF442
:100F100080610348FFF768FB0220FFF7B6FA10BDB7
:100F2000000C014010B5044622464FF4006103480E
:100F3000FFF75AFB0220FFF7A8FA10BD000C014092
:100F40007047000070B5002100230F22C47804B35D
:100F5000154C246804F4E064C4F5E064210AC1F18E
:100F60000403CA40447804FA03F18478144021430E
:100F700009010E4C0678A155047804F01F050124E0
:100F8000AC4005786D11AD0005F1E025C5F80041D4
:100F900009E0047804F01F050124AC40044D0678F4
:100FA000761145F8264070BD0CED00E000E400E04D
:100FB00080E100E002490143024A116070470000ED
:100FC0000000FA050CED00E070B500240EE00021F1
:100FD000204600F002F9002504E0002000F08EF920
:100FE000681CC5B2802DF8DB601CC4B2082CEEDB97
:100FF00070BD70B5FFF758FD0546284601F0FEF8B4
:1010000084B2032322460621022000F031F970BD8C
:1010100008B50121082000F019FA14208DF803000A
:1010200003208DF802004FF48070ADF8000069468F
:101030000A48FFF741FA4FF40070ADF80000694626
:101040000648FFF739FA012211020448FFF7CCFAEB
:10105000012251020148FFF7C7FA08BD000C014008
:1010600070B50546002419E080202041284008B1D1
:10107000012000E0002002464FF400710E48FFF707
:10108000B3FA012211020C48FFF7AEFA00224FF426
:1010900080710948FFF7A8FA601CC4B2082CE3DB92
:1010A000012211020448FFF79FFA00224FF48071D9
:1010B0000148FFF799FA70BD000C014010B50122FC
:1010C00051020A48FFF790FA012211020748FFF780
:1010D0008BFA00224FF400710448FFF785FA0022D2
:1010E0004FF480710148FFF77FFA10BD000C0140FA
:1010F00010B500224FF400710648FFF775FA01227F
:1011000011020448FFF770FA012251020148FFF76B
:101110006BFA10BD000C014070B5002406E00025FC
:1011200000E06D1CB5F57A7FFBD3641CB4F57A7FC3
:10113000F5D3FFF76DFFAE2000F0D0F8D52000F01A
:10114000CDF8802000F0CAF8A82000F0C7F83F20B2
:1011500000F0C4F8D32000F0C1F8002000F0BEF881
:10116000402000F0BBF8A12000F0B8F8C82000F043
:10117000B5F8DA2000F0B2F8122000F0AFF88120C4
:1011800000F0ACF8CF2000F0A9F8D92000F0A6F8C4
:10119000F12000F0A3F8DB2000F0A0F8302000F0F0
:1011A0009DF8A42000F09AF8A62000F097F88D2072
:1011B00000F094F8142000F091F8AF2000F08EF8C1
:1011C000FFF702FF70BD10B50246012000E050435A
:1011D0000B1EA1F10101FAD110BD70B505460C46F8
:1011E00045F0B00000F07AF8102141EA141000F048
:1011F00075F804F00F0000F071F870BD2DE9F041B2
:1012000005460E461746721ED206110E6A1E52067B
:10121000100EFFF7E2FF002409E0A7F12001134AB6
:1012200002EB0111085D00F069F8601CC4B2082CE3
:10123000F3DB721ED206110E6A1E012303EB42027B
:10124000D0B2FFF7CAFF00240BE0A7F12001074A44
:1012500002EB011204F10801505C00F04FF8601C31
:10126000C4B2082CF1DBBDE8F0810000BA2500080B
:101270002DE9F04780460E4617461D46002415E02E
:10128000281B411E0A20FFF79EFFB7FBF0F00A2142
:10129000B0FBF1F201FB120000F130093019C1B2CC
:1012A0004A464046FFF7AAFF601CC4B2AC42E7DBE7
:1012B000BDE8F0872DE9F04107460E4615460024AB
:1012C00007E02A5D3019C1B23846FFF797FF601C6E
:1012D000C4B2285D0028F4D1BDE8F08110B5044601
:1012E000FFF7ECFE7820FFF7BBFE0020FFF7B8FE0B
:1012F0002046FFF7B5FEFFF7FBFE10BD10B5044614
:10130000FFF7DCFE7820FFF7ABFE4020FFF7A8FEDA
:101310002046FFF7A5FEFFF7EBFE10BD00200349B6
:101320008860C860C86108627047000088000020BB
:1013300010B5064B186159619A610023034C236074
:101340006360A360E360E361236210BD8800002056
:1013500010B5064B186159619A610023034C236054
:101360006360A360E360E361236210BDAC00002012
:1013700030B589B005460C460121042000F066F81E
:101380000121C80200F062F818208DF82300032024
:101390008DF822004FF40070ADF8200008A9204815
:1013A000FFF78AF84FF48060ADF8200008A91C48C8
:1013B000FFF782F8ADF81850ADF814400020ADF8F2
:1013C0001A00ADF8160005A9164800F087FA60204B
:1013D000ADF804000020ADF80A00ADF80C000120C3
:1013E000ADF8060001A90F4800F0BAF901A90D48AF
:1013F00000F016FA01210B4800F088F9082109488D
:1014000000F000FA0821074800F05AFA01210548C7
:1014100000F061F90121034800F06CF909B030BD1A
:1014200000080140002C01407047000029B1064A25
:10143000D2690243044BDA6104E0034AD269824371
:10144000014BDA61704700000010024029B1064AE2
:1014500092690243044B9A6104E0034A9269824311
:10146000014B9A617047000000100240704710B5B0
:1014700000F002F810BD00000CB5002001900090B3
:101480003348006840F480303149086000BF30487C
:10149000006800F4003000900198401C0190009812
:1014A00018B90198B0F5A06FF1D12948006800F48F
:1014B000003010B10120009001E000200090009861
:1014C000012843D12348006840F0100021490860FA
:1014D0000846006820F0030008600846006840F0F5
:1014E000020008601A484068194948600846406888
:1014F00048600846406840F480604860084640689C
:1015000020F47C1048600846406840F4E8104860C9
:101510000846006840F08070086000BF0C48006812
:1015200000F000700028F9D00948406820F003005E
:10153000074948600846406840F00200486000BF24
:101540000348406800F00C000828F9D10CBD0000E9
:1015500000100240002002402DE9F04106460F46EF
:10156000784200EBC000C400704200EBC000C50030
:10157000002C0ADD4FF400511A48FFF733F84FF4FE
:1015800080411848FFF72CF80AE04FF40051154845
:10159000FFF726F84FF480411248FFF723F8644222
:1015A000002D0ADD4FF480710F48FFF71BF84FF450
:1015B00000410C48FFF714F80AE04FF480710A4824
:1015C000FFF70EF84FF400410648FFF70BF86D42A5
:1015D000A1B2064800F07FF9A9B2044800F079F9F9
:1015E000BDE8F081000C014000080140002C0140E2
:1015F000704710B500F002F810BD000010B5134898
:10160000006840F001001149086008464068104930
:1016100008400E494860084600680E4908400B49DA
:1016200008600846006820F480200860084640688A
:1016300020F4FE0048604FF41F008860FFF717FF9A
:101640004FF000600449086010BD00000010024027
:101650000000FFF8FFFFF6FE08ED00E010B50121E5
:10166000880700F062F830B10121880700F03FF8E8
:1016700001200149087010BD650000201FB501213F
:101680000846FFF7D3FEC720ADF8080041F61F401B
:10169000ADF804000020ADF80A00ADF8060001A97D
:1016A0004FF0804000F01AF901221146900700F037
:1016B0004DF80121880700F01DF81C208DF800006E
:1016C00001208DF801008DF802008DF803006846B6
:1016D000FFF738FC1FBD21B1028842F08002028072
:1016E00004E002884FF67F731A4002807047CA43B5
:1016F0000282704721B1028842F00102028004E0B8
:1017000002884FF6FE731A400280704731B1B0F87C
:10171000442042F40042A0F8442005E0B0F8442000
:10172000C2F30E02A0F84420704730B502460020F4
:1017300000230024158A05EA0103958905EA0104BE
:1017400013B10CB1012000E0002030BD1AB1838933
:101750000B43838102E083898B43838170470000C0
:1017600070B5002400220023058C4FF6EF7635403B
:101770000584028C8388048B48F6FF752C404FF655
:10178000FF452C400D884FF6FF7606EA05252C43D1
:101790004FF6DF752A400D8906EA05152A434D8864
:1017A00006EA05152A43154DA84202D0144DA84259
:1017B0001DD14FF67F752A404D894FF6FF7606EA18
:1017C00005152A434FF6BF752A408D8806EA051590
:1017D0002A434FF6FF352B404FF2FF752B408D8982
:1017E00006EA85052B43CD8906EA85052B438380D0
:1017F0000483CD880587028470BD0000002C014061
:10180000003401400A460021018B4FF2FF7319405A
:101810004FF6FF7303EA0223194301837047000068
:1018200070B5002400220023058C4FF6FF6635407A
:101830000584028C8388848B4FF68F752C404FF67D
:10184000FC752C400D882C434FF6FF552A400D891E
:101850004FF6FF7606EA05252A434D8806EA052558
:101860002A43154DA84202D0144DA8421DD14FF273
:10187000FF752A404D894FF6FF7606EA05252A4373
:101880004FF6FF352A408D8806EA05252A434EF695
:10189000FF752B404DF6FF752B408D8906EA051527
:1018A0002B43CD8906EA05152B4383808483CD889D
:1018B0008587028470BD0000002C01400034014087
:1018C0000A460021818B4FF6F7731940114381833B
:1018D00070470187704781877047000000220288A7
:1018E0001D4B98420ED01D4B98420BD0B0F1804F4B
:1018F00008D01B4B984205D01A4B984202D01A4B85
:10190000984204D14FF68F731A404B881A43174BF5
:10191000984207D0164B984204D04FF6FF431A4026
:10192000CB881A4302808B8883850B8803850A4BFA
:1019300098420BD0094B984208D00E4B984205D0E4
:101940000D4B984202D00D4B984201D10B7A038681
:101950000123838270470000002C014000340140C5
:101960000004004000080040000C0040001000404F
:101970000014004000400140004401400048014084
:1019800000BFFEE70146002209294DD2DFE801F041
:101990004C050D161F28313A4300254800680128E0
:1019A00001D1012200E000223EE02148001D006834
:1019B000012801D1012200E0002235E01C48083056
:1019C0000068012801D1012200E000222CE0184823
:1019D0000C300068012801D1012200E0002223E040
:1019E000134810300068012801D1012200E00022D4
:1019F0001AE00F4814300068012801D1012200E0EC
:101A0000002211E00A4818300068012801D10122A3
:101A100000E0002208E006481C300068012801D1DF
:101A2000012200E0002200BF00BFD0B270470000DA
:101A3000000121421CB5FFF7DCFDFFF76DFBFFF74E
:101A4000C3FA24A201210846FFF734FC25A2012194
:101A50000220FFF72FFCFFF72DF8FEF7D5FD002140
:101A600041F61F40FFF784FCFEF70AFF4FF4A06029
:101A7000FFF7A0FAFEF7EAFDFFF700FE29E0FEF708
:101A800023FF1A48007820B300201849087018482E
:101A90001849194B194ACDE9001019491948FEF7A0
:101AA000BDFF1348B0F90000FFF7A4F816480088FE
:101AB00000F4805008B1FEF709FC14480078401C7F
:101AC000C0B2124908700A2803DB00200870FFF733
:101AD00090FAD4E75461736B3A3120537175617297
:101AE000650000005961773A0000000065000020A1
:101AF0007A0000207800002076000020740000208A
:101B000072000020700000207C0000207F00002078
:101B10002DE9FE4F074600250024A046A1460026D9
:101B20000120FFF72FFF08B1ED1D641C0220FFF715
:101B300029FF08B16D1D641C0320FFF723FF08B1C6
:101B4000ED1C641C0420FFF71DFF08B16D1C641C14
:101B50000520FFF717FF08B16D1E641C0620FFF774
:101B600011FF08B1ED1E641C0720FFF70BFF08B141
:101B70006D1F641C0820FFF705FF08B1ED1F641CF2
:101B80004CBB71480078E0B170480088002804DD43
:101B90006E480088401E6D4908806B4890F900002F
:101BA00000F04CFB824651466948FEF769FD6848E3
:101BB0000068684908606649086800F003FB8046D1
:101BC00008E063480168FEF75BFD6149086800F0C2
:101BD000F9FA804633E05D480088002818DD5B484C
:101BE0000088401E59490880574890F9000000F0CD
:101BF00025FB824651465648FEF742FD5448006890
:101C0000544908605249086800F0DCFA804616E042
:101C100000204D49087095FBF4F8404600F00EFB9B
:101C2000824651464A48FEF72BFD4948006849491B
:101C300008604749086800F0C5FA804600BF404682
:101C400000F0FCFA824644480168504600F08AF9E8
:101C50004149086041494048006800F007FC02D251
:101C60003E483D4908603E493B48006800F0FEFAA6
:101C700002D23B4838490860404600F0DFFA019044
:101C800038480168019800F023FC83463648016813
:101C9000584600F01FFB82462F4801683348006811
:101CA00000F018FB0190404600F0C8FA0090304860
:101CB0000168009800F00EFB8346019900F052F98C
:101CC0005146029000F04EF98146404600F0B6FAC7
:101CD00024490860484600F075FA0646282E00DDC3
:101CE000282616F1280F01DA6FF02706B81B2149C4
:101CF0000860B819204908601E480068642802DDA1
:101D000064201C4908601B48006810F1640F03DA66
:101D10006FF063001749086017480068642802DD07
:101D20006420154908601448006810F1640F03DA54
:101D30006FF06300104908600F4801680D480068A3
:101D4000FFF70AFCBDE8FE8F4C0000204E0000208B
:101D50005000002048000020400000200000F0411A
:101D60000000F0C1440000203C00002038000020AA
:101D700034000020680000206C0000202DE9FE4F98
:101D80000D2700250024A0460020029000260120F7
:101D9000FFF7F8FD08B1ED1D641C0220FFF7F2FD0E
:101DA00008B16D1D641C0320FFF7ECFD08B1ED1CAC
:101DB000641C0420FFF7E6FD08B16D1C641C0520BF
:101DC000FFF7E0FD08B16D1E641C0620FFF7DAFD89
:101DD00008B1ED1E641C0720FFF7D4FD08B16D1F8C
:101DE000641C0820FFF7CEFD08B1ED1F641C4CB940
:101DF00000215148FEF744FC4F49086800F0E2F921
:101E0000804613E095FBF4F8404600F017FA81464F
:101E100049464948FEF734FC47480068474908608E
:101E20004549086800F0CEF9804600BF404600F002
:101E300005FA814642480168484600F093F8404957
:101E4000086040493E48006800F010FB02D23D485F
:101E50003B4908603C493A48006800F007FA02D262
:101E6000394837490860404600F0E8F901903748A2
:101E70000168019800F02CFB8346354801685846FC
:101E800000F028FA81462E4801683248006800F0C8
:101E900021FA0190404600F0D1F900902E480168E7
:101EA000009800F017FA8346019900F05BF882462B
:101EB000494600F057F80290404600F0BFF9234928
:101EC0000860029800F07EF90646142E00DD142604
:101ED00016F1140F01DA6FF01306B81B1F490860E2
:101EE000B8191F4908601D480068642802DD642095
:101EF0001A4908601948006810F1640F03DA6FF09E
:101F000063001649086016480068642802DD6420F2
:101F1000134908601248006810F1640F03DA6FF08B
:101F200063000F4908600E4801680C480068FFF71D
:101F300013FBBDE8FE8F0000500000204800002089
:101F4000400000200000A0410000A0C1440000208B
:101F50003C000020380000203400002068000020F1
:101F60006C00002090EA010F48BF81F0004100F1B1
:101F7000B682421A3CBF801A89184FEAD0524FF0FD
:101F80007F4C1CEA410FA2EBD15318BF9CEA026FB1
:101F900000F03B804FF0004C4CEA00204CEA01215D
:101FA00021FA03FC10EB0C0C1ED202F1FF325FEAA7
:101FB0001C2040EBC25038BF70471CF07F0F4FEA27
:101FC000400C18BFBCF17F4F38BF7047C3F12003EE
:101FD000994008BF20F00100BCF17F4F38BF704727
:101FE000A0F1C04000F03DBA4FEA3C00000A40EBCF
:101FF000C25028BF1CF0FF0F4FEA400CE6D018BFBC
:10200000BCF17F4F38BF7047EAE79CEA026F05D00A
:1020100010EA5C0F08BF00F00040704710B500F0F8
:10202000DAF900BF64FBBE3E401058BFC0F140402B
:10203000491058BFC1F140418142EFF30080704721
:102040004FF47F0C1CEAD0121EBF1CEAD11392EA97
:102050000C0F93EA0C0F00F0858090EA010F48BF47
:1020600042F4807240F4000C41F400002CF07F41F7
:1020700020F07F4000B58142A2EB03020FF2081C62
:10208000ACEB504EC0F100009EF800E04FEA4E0E5F
:1020900000FB0EFC38BF49004FEA2C1C02F5FA0287
:1020A0000CFB0EF34FEACE1E4FEA112C4FEAC12172
:1020B0000EEB635E42EB22420EFB0CFC4FEA1C531C
:1020C00000FB03114FEA112C4FEA01310EFB0CFC0F
:1020D0004FEADC4C00FB0C11C14228BF09184CEB45
:1020E00003335DF804EB10EB410143EBC250B2F552
:1020F0007C0F38BF704729D512F0F00F1CBF00F1DC
:10210000C04000F00040704700818283848586874C
:1021100088898B8C8D8E8F919293959697999A9CA6
:102120009D9FA0A2A3A5A7A8AAACAEB0B2B3B5B715
:10213000B9BCBEC0C2C5C7C9CCCED1D4D7D9DCDFEB
:10214000E2E6E9ECF0F3F7FAFE0000004FEA400C9B
:102150000CF1807CBCF17E4F28BF7047B0F1C040CD
:1021600000F07FB990EA010F0CEAD11348BF42F4A6
:102170008072624538BF634507D213F47F0F16D0D3
:1021800080EA010000F00040704710B500F023F92C
:10219000097EFC3E00F005B880EA010000F0004036
:1021A000704780EA010000F0004000F05AB912F4D4
:1021B0007F0F04BF0248704780EA010000F051B968
:1021C0000000C07F41000B0ED3F19E0208D950F4ED
:1021D00000034FEA032323FA02F048BF404270474E
:1021E00010B500F0F8F800BF499224800020704735
:1021F0006FF0004282EA200070470000C10DD1F16B
:102200009E0206DB4FEA002343F0004323FA02F06C
:102210007047004207D54FEA4001B1F1FE4F02D2AC
:102220004FF00000704710B500F0D5F849922480B7
:10223000002070476FEA20007047000010F0004156
:1022400048BF4042B0FA80F310FA03F2C3F19D0395
:102250000BD051EAC35101EB1220530638BF70472F
:1022600000F1010008BF20F00100704750EA010CA6
:1022700000F113801CF5000F58BFBCF5000F01D40E
:102280008842704707D710F5000F58BF11F5000FAF
:1022900015D488427047894270471CF5000F04D559
:1022A000BCF5000FF7D5814270474FF0807C1CEBE6
:1022B000400F38BF1CEB410F01D28142704710B56F
:1022C00000F089F8922449004FF000504FF08051FF
:1022D000FFF7AABE4FF47F0C1CEAD0121EBF1CEA07
:1022E000D11392EA0C0F93EA0C0F00F0478090EAAA
:1022F000010F48BF42F480724FF0004C4CEA0020BE
:102300004CEA012102EB0302A0FB0113A2F500023B
:10231000002918BF43F001035B0028BF4FEA3303D5
:1023200042EB22425FEA132C4CEBC2502EBFBCEBB7
:10233000436FB2F57C0F70474FEA036CBCF1004F5E
:1023400008BF20F00100B2F57C0F38BF70470BD5F5
:1023500082F0FF0212F5803FC8BF704700F1C04015
:10236000D8BF00F00040704700F5000C5FEA4C0C4D
:1023700048BF7047B0F1C04000F073B890EA010F59
:102380000CEAD11348BF42F48072624538BF6345FE
:1023900004D280EA010000F00040704710B500F060
:1023A0001AF800BF8900013E00F007B800F009B834
:1023B0005FEA410C5FEA1C6C08D080EA010000F083
:1023C00050B85FEA400C5FEA1C6CF6D14FF0004059
:1023D000A0F5800070470EF1020E2EF0030E5EF89D
:1023E000044B244204D44FEA4102B2F17F4F11D88A
:1023F0004FEA4003B3F17F4F0CD80ED14FEAD07CA7
:10240000B2F17F4F0CEB4C0C0CF1020C08BF4CEB03
:10241000D17C04E04FF0080C01E04FEAD17C0CEBDA
:102420004C0324FA03F404F00704B4F1040C06D2BC
:102430000EEB840CBDE810404CF0010C6047DFE867
:102440000CF0070802024FF00040A0F5800010BD1C
:102450000846420018BFD2F1807288BF00F00040E9
:1024600010BDFF2141EAD050C005704751EA000C71
:1024700000F113801CF5000F58BFBCF5000F01D40C
:102480008142704707D711F5000F58BF10F5000FB4
:1024900015D481427047894270471CF5000F04D55E
:1024A000BCF5000FF7D5884270474FF0807C1CEBDD
:1024B000410F38BF1CEB400F01D28842704780EAC1
:1024C000010081EA000180EA0100FFF7F8BE000088
:1024D00090EA010F48BF81F000413FF54AAD421A32
:1024E00004D882F00042A0EB020011444FEAD0521F
:1024F0004FF07F4C1CEA410FA2EBD15318BF9CEA6E
:10250000026F4AD04FF0004C4CEA00204CEA012107
:1025100021FA03FCB0EB0C0C0FD412F0FE0F36D0F6
:102520005FEA4C001DD5001240EBC25038BF704727
:102530001CF03F0F18BF70470BE0A2F101025FEAE9
:102540001C2040EBC25038BF70471CF07F0F18BFF3
:102550007047C3F12003994014BF401E20F00100D2
:10256000704780084FEA122308BF7047B0FA80FC1A
:10257000A2EB0C02CCF1280C60FA0CF093EA122FBB
:1025800004BF00EBC25070474FEAC3707047130A94
:102590005FEADC1008BF7047F6E79CEA026F04D0E0
:1025A00010EA5C0F08BF0020704710B5FFF713FF5B
:1025B00040DFF63E81F00040704700000000000060
:1025C00000000000000000000000000000F8000013
:1025D0000000000000333000000000100C06100C5A
:1025E0000600000000000000000040C07840C078F5
:1025F0004000043F04043F040400007088FC0830DD
:102600000000001820FF211E0000F008F000E01874
:10261000000000211C031E211E0000F0088870002D
:1026200000001E2123241927211010160E0000007F
:1026300000000000000000000000000000E018049E
:102640000200000000071820400000020418E0000B
:1026500000000040201807000000404080F080404B
:1026600040000202010F01020200000000F0000021
:1026700000000101011F0101010000000000000035
:10268000000080B0700000000000000000000000AA
:102690000000000101010101010100000000000033
:1026A00000000030300000000000000000008060EA
:1026B0001804006018060100000000E0100808106F
:1026C000E000000F102020100F00001010F8000094
:1026D00000000020203F202000000070080808882B
:1026E00070000030282422213000003008888848FB
:1026F00030000018202020110E000000C02010F82B
:10270000000000070424243F240000F808888808FB
:1027100008000019212020110E0000E01088881800
:102720000000000F112020110E0000380808C838E2
:1027300008000000003F00000000007088080888C2
:102740007000001C222121221C0000E0100808104B
:10275000E0000000312222110F00000000C0C00084
:102760000000000000303000000000000080000089
:102770000000000080600000000000008040201089
:102780000800000102040810200040404040404082
:1027900040000404040404040400000810204080E5
:1027A000000000201008040201000070480808081A
:1027B000F0000000003036010000C030C828E810EA
:1027C000E0000718272423140B000000C038E000A5
:1027D0000000203C23020227382008F888888870EF
:1027E0000000203F202020110E00C03008080808FB
:1027F0003800071820202010080008F808080810E2
:10280000E000203F202020100F0008F88888E8080A
:102810001000203F20202320180008F88888E808AE
:102820001000203F200003000000C03008080838D6
:10283000000007182020221E020008F808000008E7
:10284000F808203F210101213F20000808F808086E
:1028500000000020203F2020000000000808F808A9
:102860000800C08080807F00000008F888C0281819
:102870000800203F20012638200008F8080000004A
:102880000000203F20202020300008F8F800F8F851
:102890000800203F003F003F200008F830C000083B
:1028A000F808203F200007183F00E0100808081033
:1028B000E0000F10202020100F0008F8080808087A
:1028C000F000203F210101010000E010080808107D
:1028D000E0000F18242438504F0008F888888888B2
:1028E0007000203F2000030C30200070880808088A
:1028F00038000038202121221C00180808F8080898
:1029000018000000203F2000000008F80800000820
:10291000F808001F202020201F000878880000C829
:102920003808000007380E010000F80800F8000819
:10293000F800033C0700073C030008186880806823
:10294000180820302C03032C30200838C800C83861
:1029500008000000203F2000000010080808C838C8
:1029600008002038262120201800000000FE020266
:1029700002000000007F40404000000C30C000001A
:102980000000000000010638C00000020202FE0044
:102990000000004040407F000000000004020202EE
:1029A0000400000000000000000000000000000023
:1029B000000080808080808080800002020400000F
:1029C0000000000000000000000000008080808007
:1029D00000000019242222223F2008F800808000F5
:1029E0000000003F112020110E00000000808080B8
:1029F0000000000E112020201100000000808088BF
:102A0000F800000E112020103F2000008080808000
:102A10000000001F222222221300008080F08888FC
:102A200088180020203F2020000000008080808047
:102A30008000006B94949493600008F8008080807C
:102A40000000203F210000203F20008098980000D7
:102A500000000020203F2020000000000080989807
:102A6000000000C08080807F000008F800008080A7
:102A70008000203F24022D302000000808F80000CC
:102A800000000020203F2020000080808080808087
:102A90008000203F20003F20003F80800080808019
:102AA0000000203F210000203F2000008080808027
:102AB0000000001F202020201F0080800080800058
:102AC000000080FFA12020110E0000000080808007
:102AD0008000000E112020A0FF8080808000808078
:102AE000800020203F2120000100000080808080A5
:102AF00080000033242424241900008080E080809A
:102B000000000000001F20200000808000000080E6
:102B10008000001F202020103F2080808000008047
:102B2000808000010E300806010080800080008057
:102B300080800F300C030C300F00008080008080FC
:102B400080000020312E0E31200080808000008027
:102B5000808080818E7018060100008080808080D7
:102B600080000021302C2221300000000000807CF9
:102B7000020200000000003F404000000000FF0093
:102B8000000000000000FF0000000002027C800046
:102B900000000040403F000000000006010102026A
:102BA000040400000000000000000000CC2B00081E
:102BB000000000208800000028010008542C0008B4
:102BC00088000020A8060000440100080000000062
:102BD00000000000000000000000000000000000F5
:102BE000000000000AD7A33C0000003F01000000E5
:102BF00000000000000000000000000000000000D5
:102C00009A99993F000000000000E0400000000099
:102C100000000000000000000000000000000000B4
:102C20000000803FCDCC4C3D000040400000000043
:102C30000000000000000000000000000000000094
:102C40000000000000000000000000000000000084
:042C50000000000080
:04000005080000ED02
:00000001FF
